{
	"data": {
		"bytecode": {
			"linkReferences": {},
			"object": "6080604052348015600e575f5ffd5b506105058061001c5f395ff3fe608060405234801561000f575f5ffd5b5060043610610034575f3560e01c80631156236d14610038578063c3397a6814610069575b5f5ffd5b610052600480360381019061004d919061014f565b610073565b60405161006092919061019c565b60405180910390f35b610071610082565b005b5f5f8383915091509250929050565b600a5f5f6101000a81548160ff021916908360ff160217905550600f5f60016101000a81548160ff021916908360ff1602179055506040518060400160405280600481526020017f416e646900000000000000000000000000000000000000000000000000000000815250600190816100fb9190610400565b50600160025f6101000a81548160ff021916908315150217905550565b5f5ffd5b5f819050919050565b61012e8161011c565b8114610138575f5ffd5b50565b5f8135905061014981610125565b92915050565b5f5f6040838503121561016557610164610118565b5b5f6101728582860161013b565b92505060206101838582860161013b565b9150509250929050565b6101968161011c565b82525050565b5f6040820190506101af5f83018561018d565b6101bc602083018461018d565b9392505050565b5f81519050919050565b7f4e487b71000000000000000000000000000000000000000000000000000000005f52604160045260245ffd5b7f4e487b71000000000000000000000000000000000000000000000000000000005f52602260045260245ffd5b5f600282049050600182168061023e57607f821691505b602082108103610251576102506101fa565b5b50919050565b5f819050815f5260205f209050919050565b5f6020601f8301049050919050565b5f82821b905092915050565b5f600883026102b37fffffffffffffffffffffffffffffffffffffffffffffffffffffffffffffffff82610278565b6102bd8683610278565b95508019841693508086168417925050509392505050565b5f819050919050565b5f819050919050565b5f6103016102fc6102f7846102d5565b6102de565b6102d5565b9050919050565b5f819050919050565b61031a836102e7565b61032e61032682610308565b848454610284565b825550505050565b5f5f905090565b610345610336565b610350818484610311565b505050565b5b81811015610373576103685f8261033d565b600181019050610356565b5050565b601f8211156103b85761038981610257565b61039284610269565b810160208510156103a1578190505b6103b56103ad85610269565b830182610355565b50505b505050565b5f82821c905092915050565b5f6103d85f19846008026103bd565b1980831691505092915050565b5f6103f083836103c9565b9150826002028217905092915050565b610409826101c3565b67ffffffffffffffff811115610422576104216101cd565b5b61042c8254610227565b610437828285610377565b5f60209050601f831160018114610468575f8415610456578287015190505b61046085826103e5565b8655506104c7565b601f19841661047686610257565b5f5b8281101561049d57848901518255600182019150602085019450602081019050610478565b868310156104ba57848901516104b6601f8916826103c9565b8355505b6001600288020188555050505b50505050505056fea26469706673582212200dc431a8716b49ec13e87d72d6f395551fc1c2fa9332160d899722817d28d16b64736f6c634300081b0033",
			"opcodes": "PUSH1 0x80 PUSH1 0x40 MSTORE CALLVALUE DUP1 ISZERO PUSH1 0xE JUMPI PUSH0 PUSH0 REVERT JUMPDEST POP PUSH2 0x505 DUP1 PUSH2 0x1C PUSH0 CODECOPY PUSH0 RETURN INVALID PUSH1 0x80 PUSH1 0x40 MSTORE CALLVALUE DUP1 ISZERO PUSH2 0xF JUMPI PUSH0 PUSH0 REVERT JUMPDEST POP PUSH1 0x4 CALLDATASIZE LT PUSH2 0x34 JUMPI PUSH0 CALLDATALOAD PUSH1 0xE0 SHR DUP1 PUSH4 0x1156236D EQ PUSH2 0x38 JUMPI DUP1 PUSH4 0xC3397A68 EQ PUSH2 0x69 JUMPI JUMPDEST PUSH0 PUSH0 REVERT JUMPDEST PUSH2 0x52 PUSH1 0x4 DUP1 CALLDATASIZE SUB DUP2 ADD SWAP1 PUSH2 0x4D SWAP2 SWAP1 PUSH2 0x14F JUMP JUMPDEST PUSH2 0x73 JUMP JUMPDEST PUSH1 0x40 MLOAD PUSH2 0x60 SWAP3 SWAP2 SWAP1 PUSH2 0x19C JUMP JUMPDEST PUSH1 0x40 MLOAD DUP1 SWAP2 SUB SWAP1 RETURN JUMPDEST PUSH2 0x71 PUSH2 0x82 JUMP JUMPDEST STOP JUMPDEST PUSH0 PUSH0 DUP4 DUP4 SWAP2 POP SWAP2 POP SWAP3 POP SWAP3 SWAP1 POP JUMP JUMPDEST PUSH1 0xA PUSH0 PUSH0 PUSH2 0x100 EXP DUP2 SLOAD DUP2 PUSH1 0xFF MUL NOT AND SWAP1 DUP4 PUSH1 0xFF AND MUL OR SWAP1 SSTORE POP PUSH1 0xF PUSH0 PUSH1 0x1 PUSH2 0x100 EXP DUP2 SLOAD DUP2 PUSH1 0xFF MUL NOT AND SWAP1 DUP4 PUSH1 0xFF AND MUL OR SWAP1 SSTORE POP PUSH1 0x40 MLOAD DUP1 PUSH1 0x40 ADD PUSH1 0x40 MSTORE DUP1 PUSH1 0x4 DUP2 MSTORE PUSH1 0x20 ADD PUSH32 0x416E646900000000000000000000000000000000000000000000000000000000 DUP2 MSTORE POP PUSH1 0x1 SWAP1 DUP2 PUSH2 0xFB SWAP2 SWAP1 PUSH2 0x400 JUMP JUMPDEST POP PUSH1 0x1 PUSH1 0x2 PUSH0 PUSH2 0x100 EXP DUP2 SLOAD DUP2 PUSH1 0xFF MUL NOT AND SWAP1 DUP4 ISZERO ISZERO MUL OR SWAP1 SSTORE POP JUMP JUMPDEST PUSH0 PUSH0 REVERT JUMPDEST PUSH0 DUP2 SWAP1 POP SWAP2 SWAP1 POP JUMP JUMPDEST PUSH2 0x12E DUP2 PUSH2 0x11C JUMP JUMPDEST DUP2 EQ PUSH2 0x138 JUMPI PUSH0 PUSH0 REVERT JUMPDEST POP JUMP JUMPDEST PUSH0 DUP2 CALLDATALOAD SWAP1 POP PUSH2 0x149 DUP2 PUSH2 0x125 JUMP JUMPDEST SWAP3 SWAP2 POP POP JUMP JUMPDEST PUSH0 PUSH0 PUSH1 0x40 DUP4 DUP6 SUB SLT ISZERO PUSH2 0x165 JUMPI PUSH2 0x164 PUSH2 0x118 JUMP JUMPDEST JUMPDEST PUSH0 PUSH2 0x172 DUP6 DUP3 DUP7 ADD PUSH2 0x13B JUMP JUMPDEST SWAP3 POP POP PUSH1 0x20 PUSH2 0x183 DUP6 DUP3 DUP7 ADD PUSH2 0x13B JUMP JUMPDEST SWAP2 POP POP SWAP3 POP SWAP3 SWAP1 POP JUMP JUMPDEST PUSH2 0x196 DUP2 PUSH2 0x11C JUMP JUMPDEST DUP3 MSTORE POP POP JUMP JUMPDEST PUSH0 PUSH1 0x40 DUP3 ADD SWAP1 POP PUSH2 0x1AF PUSH0 DUP4 ADD DUP6 PUSH2 0x18D JUMP JUMPDEST PUSH2 0x1BC PUSH1 0x20 DUP4 ADD DUP5 PUSH2 0x18D JUMP JUMPDEST SWAP4 SWAP3 POP POP POP JUMP JUMPDEST PUSH0 DUP2 MLOAD SWAP1 POP SWAP2 SWAP1 POP JUMP JUMPDEST PUSH32 0x4E487B7100000000000000000000000000000000000000000000000000000000 PUSH0 MSTORE PUSH1 0x41 PUSH1 0x4 MSTORE PUSH1 0x24 PUSH0 REVERT JUMPDEST PUSH32 0x4E487B7100000000000000000000000000000000000000000000000000000000 PUSH0 MSTORE PUSH1 0x22 PUSH1 0x4 MSTORE PUSH1 0x24 PUSH0 REVERT JUMPDEST PUSH0 PUSH1 0x2 DUP3 DIV SWAP1 POP PUSH1 0x1 DUP3 AND DUP1 PUSH2 0x23E JUMPI PUSH1 0x7F DUP3 AND SWAP2 POP JUMPDEST PUSH1 0x20 DUP3 LT DUP2 SUB PUSH2 0x251 JUMPI PUSH2 0x250 PUSH2 0x1FA JUMP JUMPDEST JUMPDEST POP SWAP2 SWAP1 POP JUMP JUMPDEST PUSH0 DUP2 SWAP1 POP DUP2 PUSH0 MSTORE PUSH1 0x20 PUSH0 KECCAK256 SWAP1 POP SWAP2 SWAP1 POP JUMP JUMPDEST PUSH0 PUSH1 0x20 PUSH1 0x1F DUP4 ADD DIV SWAP1 POP SWAP2 SWAP1 POP JUMP JUMPDEST PUSH0 DUP3 DUP3 SHL SWAP1 POP SWAP3 SWAP2 POP POP JUMP JUMPDEST PUSH0 PUSH1 0x8 DUP4 MUL PUSH2 0x2B3 PUSH32 0xFFFFFFFFFFFFFFFFFFFFFFFFFFFFFFFFFFFFFFFFFFFFFFFFFFFFFFFFFFFFFFFF DUP3 PUSH2 0x278 JUMP JUMPDEST PUSH2 0x2BD DUP7 DUP4 PUSH2 0x278 JUMP JUMPDEST SWAP6 POP DUP1 NOT DUP5 AND SWAP4 POP DUP1 DUP7 AND DUP5 OR SWAP3 POP POP POP SWAP4 SWAP3 POP POP POP JUMP JUMPDEST PUSH0 DUP2 SWAP1 POP SWAP2 SWAP1 POP JUMP JUMPDEST PUSH0 DUP2 SWAP1 POP SWAP2 SWAP1 POP JUMP JUMPDEST PUSH0 PUSH2 0x301 PUSH2 0x2FC PUSH2 0x2F7 DUP5 PUSH2 0x2D5 JUMP JUMPDEST PUSH2 0x2DE JUMP JUMPDEST PUSH2 0x2D5 JUMP JUMPDEST SWAP1 POP SWAP2 SWAP1 POP JUMP JUMPDEST PUSH0 DUP2 SWAP1 POP SWAP2 SWAP1 POP JUMP JUMPDEST PUSH2 0x31A DUP4 PUSH2 0x2E7 JUMP JUMPDEST PUSH2 0x32E PUSH2 0x326 DUP3 PUSH2 0x308 JUMP JUMPDEST DUP5 DUP5 SLOAD PUSH2 0x284 JUMP JUMPDEST DUP3 SSTORE POP POP POP POP JUMP JUMPDEST PUSH0 PUSH0 SWAP1 POP SWAP1 JUMP JUMPDEST PUSH2 0x345 PUSH2 0x336 JUMP JUMPDEST PUSH2 0x350 DUP2 DUP5 DUP5 PUSH2 0x311 JUMP JUMPDEST POP POP POP JUMP JUMPDEST JUMPDEST DUP2 DUP2 LT ISZERO PUSH2 0x373 JUMPI PUSH2 0x368 PUSH0 DUP3 PUSH2 0x33D JUMP JUMPDEST PUSH1 0x1 DUP2 ADD SWAP1 POP PUSH2 0x356 JUMP JUMPDEST POP POP JUMP JUMPDEST PUSH1 0x1F DUP3 GT ISZERO PUSH2 0x3B8 JUMPI PUSH2 0x389 DUP2 PUSH2 0x257 JUMP JUMPDEST PUSH2 0x392 DUP5 PUSH2 0x269 JUMP JUMPDEST DUP2 ADD PUSH1 0x20 DUP6 LT ISZERO PUSH2 0x3A1 JUMPI DUP2 SWAP1 POP JUMPDEST PUSH2 0x3B5 PUSH2 0x3AD DUP6 PUSH2 0x269 JUMP JUMPDEST DUP4 ADD DUP3 PUSH2 0x355 JUMP JUMPDEST POP POP JUMPDEST POP POP POP JUMP JUMPDEST PUSH0 DUP3 DUP3 SHR SWAP1 POP SWAP3 SWAP2 POP POP JUMP JUMPDEST PUSH0 PUSH2 0x3D8 PUSH0 NOT DUP5 PUSH1 0x8 MUL PUSH2 0x3BD JUMP JUMPDEST NOT DUP1 DUP4 AND SWAP2 POP POP SWAP3 SWAP2 POP POP JUMP JUMPDEST PUSH0 PUSH2 0x3F0 DUP4 DUP4 PUSH2 0x3C9 JUMP JUMPDEST SWAP2 POP DUP3 PUSH1 0x2 MUL DUP3 OR SWAP1 POP SWAP3 SWAP2 POP POP JUMP JUMPDEST PUSH2 0x409 DUP3 PUSH2 0x1C3 JUMP JUMPDEST PUSH8 0xFFFFFFFFFFFFFFFF DUP2 GT ISZERO PUSH2 0x422 JUMPI PUSH2 0x421 PUSH2 0x1CD JUMP JUMPDEST JUMPDEST PUSH2 0x42C DUP3 SLOAD PUSH2 0x227 JUMP JUMPDEST PUSH2 0x437 DUP3 DUP3 DUP6 PUSH2 0x377 JUMP JUMPDEST PUSH0 PUSH1 0x20 SWAP1 POP PUSH1 0x1F DUP4 GT PUSH1 0x1 DUP2 EQ PUSH2 0x468 JUMPI PUSH0 DUP5 ISZERO PUSH2 0x456 JUMPI DUP3 DUP8 ADD MLOAD SWAP1 POP JUMPDEST PUSH2 0x460 DUP6 DUP3 PUSH2 0x3E5 JUMP JUMPDEST DUP7 SSTORE POP PUSH2 0x4C7 JUMP JUMPDEST PUSH1 0x1F NOT DUP5 AND PUSH2 0x476 DUP7 PUSH2 0x257 JUMP JUMPDEST PUSH0 JUMPDEST DUP3 DUP2 LT ISZERO PUSH2 0x49D JUMPI DUP5 DUP10 ADD MLOAD DUP3 SSTORE PUSH1 0x1 DUP3 ADD SWAP2 POP PUSH1 0x20 DUP6 ADD SWAP5 POP PUSH1 0x20 DUP2 ADD SWAP1 POP PUSH2 0x478 JUMP JUMPDEST DUP7 DUP4 LT ISZERO PUSH2 0x4BA JUMPI DUP5 DUP10 ADD MLOAD PUSH2 0x4B6 PUSH1 0x1F DUP10 AND DUP3 PUSH2 0x3C9 JUMP JUMPDEST DUP4 SSTORE POP JUMPDEST PUSH1 0x1 PUSH1 0x2 DUP9 MUL ADD DUP9 SSTORE POP POP POP JUMPDEST POP POP POP POP POP POP JUMP INVALID LOG2 PUSH5 0x6970667358 0x22 SLT KECCAK256 0xD 0xC4 BALANCE 0xA8 PUSH18 0x6B49EC13E87D72D6F395551FC1C2FA933216 0xD DUP10 SWAP8 0x22 DUP2 PUSH30 0x28D16B64736F6C634300081B003300000000000000000000000000000000 "
		},
		"gasEstimates": {
			"creation": {
				"codeDepositCost": "257000",
				"executionCost": "298",
				"totalCost": "257298"
			},
			"external": {
				"dataDiri(int256,int256)": "infinite",
				"dataPasien()": "infinite"
			}
		},
		"methodIdentifiers": {
			"dataDiri(int256,int256)": "1156236d",
			"dataPasien()": "c3397a68"
		}
	},
	"abi": [
		{
			"inputs": [
				{
					"internalType": "int256",
					"name": "_nomorSepatu",
					"type": "int256"
				},
				{
					"internalType": "int256",
					"name": "_tinggiBadan",
					"type": "int256"
				}
			],
			"name": "dataDiri",
			"outputs": [
				{
					"internalType": "int256",
					"name": "",
					"type": "int256"
				},
				{
					"internalType": "int256",
					"name": "",
					"type": "int256"
				}
			],
			"stateMutability": "pure",
			"type": "function"
		},
		{
			"inputs": [],
			"name": "dataPasien",
			"outputs": [],
			"stateMutability": "nonpayable",
			"type": "function"
		}
	]
}