{
	"data": {
		"bytecode": {
			"linkReferences": {},
			"object": "6080604052348015600e575f5ffd5b506106a68061001c5f395ff3fe608060405234801561000f575f5ffd5b506004361061003f575f3560e01c80631156236d14610043578063a9878a8614610074578063c3397a681461007e575b5f5ffd5b61005d60048036038101906100589190610205565b610088565b60405161006b929190610252565b60405180910390f35b61007c610097565b005b610086610138565b005b5f5f8383915091509250929050565b600260019054906101000a900473ffffffffffffffffffffffffffffffffffffffff1673ffffffffffffffffffffffffffffffffffffffff16631156236d602860b46040518363ffffffff1660e01b81526004016100f69291906102f4565b6040805180830381865afa158015610110573d5f5f3e3d5ffd5b505050506040513d601f19601f82011682018060405250810190610134919061032f565b5050565b600a5f5f6101000a81548160ff021916908360ff160217905550600f5f60016101000a81548160ff021916908360ff1602179055506040518060400160405280600481526020017f416e646900000000000000000000000000000000000000000000000000000000815250600190816101b191906105a1565b50600160025f6101000a81548160ff021916908315150217905550565b5f5ffd5b5f819050919050565b6101e4816101d2565b81146101ee575f5ffd5b50565b5f813590506101ff816101db565b92915050565b5f5f6040838503121561021b5761021a6101ce565b5b5f610228858286016101f1565b9250506020610239858286016101f1565b9150509250929050565b61024c816101d2565b82525050565b5f6040820190506102655f830185610243565b6102726020830184610243565b9392505050565b5f819050919050565b5f819050919050565b5f6102a56102a061029b84610279565b610282565b6101d2565b9050919050565b6102b58161028b565b82525050565b5f819050919050565b5f6102de6102d96102d4846102bb565b610282565b6101d2565b9050919050565b6102ee816102c4565b82525050565b5f6040820190506103075f8301856102ac565b61031460208301846102e5565b9392505050565b5f81519050610329816101db565b92915050565b5f5f60408385031215610345576103446101ce565b5b5f6103528582860161031b565b92505060206103638582860161031b565b9150509250929050565b5f81519050919050565b7f4e487b71000000000000000000000000000000000000000000000000000000005f52604160045260245ffd5b7f4e487b71000000000000000000000000000000000000000000000000000000005f52602260045260245ffd5b5f60028204905060018216806103e857607f821691505b6020821081036103fb576103fa6103a4565b5b50919050565b5f819050815f5260205f209050919050565b5f6020601f8301049050919050565b5f82821b905092915050565b5f6008830261045d7fffffffffffffffffffffffffffffffffffffffffffffffffffffffffffffffff82610422565b6104678683610422565b95508019841693508086168417925050509392505050565b5f819050919050565b5f6104a261049d6104988461047f565b610282565b61047f565b9050919050565b5f819050919050565b6104bb83610488565b6104cf6104c7826104a9565b84845461042e565b825550505050565b5f5f905090565b6104e66104d7565b6104f18184846104b2565b505050565b5b81811015610514576105095f826104de565b6001810190506104f7565b5050565b601f8211156105595761052a81610401565b61053384610413565b81016020851015610542578190505b61055661054e85610413565b8301826104f6565b50505b505050565b5f82821c905092915050565b5f6105795f198460080261055e565b1980831691505092915050565b5f610591838361056a565b9150826002028217905092915050565b6105aa8261036d565b67ffffffffffffffff8111156105c3576105c2610377565b5b6105cd82546103d1565b6105d8828285610518565b5f60209050601f831160018114610609575f84156105f7578287015190505b6106018582610586565b865550610668565b601f19841661061786610401565b5f5b8281101561063e57848901518255600182019150602085019450602081019050610619565b8683101561065b5784890151610657601f89168261056a565b8355505b6001600288020188555050505b50505050505056fea2646970667358221220020a738bfe5ba19be320ad6443686ac936fdf3ffaf49cea9b02cbb2e2019290664736f6c634300081b0033",
			"opcodes": "PUSH1 0x80 PUSH1 0x40 MSTORE CALLVALUE DUP1 ISZERO PUSH1 0xE JUMPI PUSH0 PUSH0 REVERT JUMPDEST POP PUSH2 0x6A6 DUP1 PUSH2 0x1C PUSH0 CODECOPY PUSH0 RETURN INVALID PUSH1 0x80 PUSH1 0x40 MSTORE CALLVALUE DUP1 ISZERO PUSH2 0xF JUMPI PUSH0 PUSH0 REVERT JUMPDEST POP PUSH1 0x4 CALLDATASIZE LT PUSH2 0x3F JUMPI PUSH0 CALLDATALOAD PUSH1 0xE0 SHR DUP1 PUSH4 0x1156236D EQ PUSH2 0x43 JUMPI DUP1 PUSH4 0xA9878A86 EQ PUSH2 0x74 JUMPI DUP1 PUSH4 0xC3397A68 EQ PUSH2 0x7E JUMPI JUMPDEST PUSH0 PUSH0 REVERT JUMPDEST PUSH2 0x5D PUSH1 0x4 DUP1 CALLDATASIZE SUB DUP2 ADD SWAP1 PUSH2 0x58 SWAP2 SWAP1 PUSH2 0x205 JUMP JUMPDEST PUSH2 0x88 JUMP JUMPDEST PUSH1 0x40 MLOAD PUSH2 0x6B SWAP3 SWAP2 SWAP1 PUSH2 0x252 JUMP JUMPDEST PUSH1 0x40 MLOAD DUP1 SWAP2 SUB SWAP1 RETURN JUMPDEST PUSH2 0x7C PUSH2 0x97 JUMP JUMPDEST STOP JUMPDEST PUSH2 0x86 PUSH2 0x138 JUMP JUMPDEST STOP JUMPDEST PUSH0 PUSH0 DUP4 DUP4 SWAP2 POP SWAP2 POP SWAP3 POP SWAP3 SWAP1 POP JUMP JUMPDEST PUSH1 0x2 PUSH1 0x1 SWAP1 SLOAD SWAP1 PUSH2 0x100 EXP SWAP1 DIV PUSH20 0xFFFFFFFFFFFFFFFFFFFFFFFFFFFFFFFFFFFFFFFF AND PUSH20 0xFFFFFFFFFFFFFFFFFFFFFFFFFFFFFFFFFFFFFFFF AND PUSH4 0x1156236D PUSH1 0x28 PUSH1 0xB4 PUSH1 0x40 MLOAD DUP4 PUSH4 0xFFFFFFFF AND PUSH1 0xE0 SHL DUP2 MSTORE PUSH1 0x4 ADD PUSH2 0xF6 SWAP3 SWAP2 SWAP1 PUSH2 0x2F4 JUMP JUMPDEST PUSH1 0x40 DUP1 MLOAD DUP1 DUP4 SUB DUP2 DUP7 GAS STATICCALL ISZERO DUP1 ISZERO PUSH2 0x110 JUMPI RETURNDATASIZE PUSH0 PUSH0 RETURNDATACOPY RETURNDATASIZE PUSH0 REVERT JUMPDEST POP POP POP POP PUSH1 0x40 MLOAD RETURNDATASIZE PUSH1 0x1F NOT PUSH1 0x1F DUP3 ADD AND DUP3 ADD DUP1 PUSH1 0x40 MSTORE POP DUP2 ADD SWAP1 PUSH2 0x134 SWAP2 SWAP1 PUSH2 0x32F JUMP JUMPDEST POP POP JUMP JUMPDEST PUSH1 0xA PUSH0 PUSH0 PUSH2 0x100 EXP DUP2 SLOAD DUP2 PUSH1 0xFF MUL NOT AND SWAP1 DUP4 PUSH1 0xFF AND MUL OR SWAP1 SSTORE POP PUSH1 0xF PUSH0 PUSH1 0x1 PUSH2 0x100 EXP DUP2 SLOAD DUP2 PUSH1 0xFF MUL NOT AND SWAP1 DUP4 PUSH1 0xFF AND MUL OR SWAP1 SSTORE POP PUSH1 0x40 MLOAD DUP1 PUSH1 0x40 ADD PUSH1 0x40 MSTORE DUP1 PUSH1 0x4 DUP2 MSTORE PUSH1 0x20 ADD PUSH32 0x416E646900000000000000000000000000000000000000000000000000000000 DUP2 MSTORE POP PUSH1 0x1 SWAP1 DUP2 PUSH2 0x1B1 SWAP2 SWAP1 PUSH2 0x5A1 JUMP JUMPDEST POP PUSH1 0x1 PUSH1 0x2 PUSH0 PUSH2 0x100 EXP DUP2 SLOAD DUP2 PUSH1 0xFF MUL NOT AND SWAP1 DUP4 ISZERO ISZERO MUL OR SWAP1 SSTORE POP JUMP JUMPDEST PUSH0 PUSH0 REVERT JUMPDEST PUSH0 DUP2 SWAP1 POP SWAP2 SWAP1 POP JUMP JUMPDEST PUSH2 0x1E4 DUP2 PUSH2 0x1D2 JUMP JUMPDEST DUP2 EQ PUSH2 0x1EE JUMPI PUSH0 PUSH0 REVERT JUMPDEST POP JUMP JUMPDEST PUSH0 DUP2 CALLDATALOAD SWAP1 POP PUSH2 0x1FF DUP2 PUSH2 0x1DB JUMP JUMPDEST SWAP3 SWAP2 POP POP JUMP JUMPDEST PUSH0 PUSH0 PUSH1 0x40 DUP4 DUP6 SUB SLT ISZERO PUSH2 0x21B JUMPI PUSH2 0x21A PUSH2 0x1CE JUMP JUMPDEST JUMPDEST PUSH0 PUSH2 0x228 DUP6 DUP3 DUP7 ADD PUSH2 0x1F1 JUMP JUMPDEST SWAP3 POP POP PUSH1 0x20 PUSH2 0x239 DUP6 DUP3 DUP7 ADD PUSH2 0x1F1 JUMP JUMPDEST SWAP2 POP POP SWAP3 POP SWAP3 SWAP1 POP JUMP JUMPDEST PUSH2 0x24C DUP2 PUSH2 0x1D2 JUMP JUMPDEST DUP3 MSTORE POP POP JUMP JUMPDEST PUSH0 PUSH1 0x40 DUP3 ADD SWAP1 POP PUSH2 0x265 PUSH0 DUP4 ADD DUP6 PUSH2 0x243 JUMP JUMPDEST PUSH2 0x272 PUSH1 0x20 DUP4 ADD DUP5 PUSH2 0x243 JUMP JUMPDEST SWAP4 SWAP3 POP POP POP JUMP JUMPDEST PUSH0 DUP2 SWAP1 POP SWAP2 SWAP1 POP JUMP JUMPDEST PUSH0 DUP2 SWAP1 POP SWAP2 SWAP1 POP JUMP JUMPDEST PUSH0 PUSH2 0x2A5 PUSH2 0x2A0 PUSH2 0x29B DUP5 PUSH2 0x279 JUMP JUMPDEST PUSH2 0x282 JUMP JUMPDEST PUSH2 0x1D2 JUMP JUMPDEST SWAP1 POP SWAP2 SWAP1 POP JUMP JUMPDEST PUSH2 0x2B5 DUP2 PUSH2 0x28B JUMP JUMPDEST DUP3 MSTORE POP POP JUMP JUMPDEST PUSH0 DUP2 SWAP1 POP SWAP2 SWAP1 POP JUMP JUMPDEST PUSH0 PUSH2 0x2DE PUSH2 0x2D9 PUSH2 0x2D4 DUP5 PUSH2 0x2BB JUMP JUMPDEST PUSH2 0x282 JUMP JUMPDEST PUSH2 0x1D2 JUMP JUMPDEST SWAP1 POP SWAP2 SWAP1 POP JUMP JUMPDEST PUSH2 0x2EE DUP2 PUSH2 0x2C4 JUMP JUMPDEST DUP3 MSTORE POP POP JUMP JUMPDEST PUSH0 PUSH1 0x40 DUP3 ADD SWAP1 POP PUSH2 0x307 PUSH0 DUP4 ADD DUP6 PUSH2 0x2AC JUMP JUMPDEST PUSH2 0x314 PUSH1 0x20 DUP4 ADD DUP5 PUSH2 0x2E5 JUMP JUMPDEST SWAP4 SWAP3 POP POP POP JUMP JUMPDEST PUSH0 DUP2 MLOAD SWAP1 POP PUSH2 0x329 DUP2 PUSH2 0x1DB JUMP JUMPDEST SWAP3 SWAP2 POP POP JUMP JUMPDEST PUSH0 PUSH0 PUSH1 0x40 DUP4 DUP6 SUB SLT ISZERO PUSH2 0x345 JUMPI PUSH2 0x344 PUSH2 0x1CE JUMP JUMPDEST JUMPDEST PUSH0 PUSH2 0x352 DUP6 DUP3 DUP7 ADD PUSH2 0x31B JUMP JUMPDEST SWAP3 POP POP PUSH1 0x20 PUSH2 0x363 DUP6 DUP3 DUP7 ADD PUSH2 0x31B JUMP JUMPDEST SWAP2 POP POP SWAP3 POP SWAP3 SWAP1 POP JUMP JUMPDEST PUSH0 DUP2 MLOAD SWAP1 POP SWAP2 SWAP1 POP JUMP JUMPDEST PUSH32 0x4E487B7100000000000000000000000000000000000000000000000000000000 PUSH0 MSTORE PUSH1 0x41 PUSH1 0x4 MSTORE PUSH1 0x24 PUSH0 REVERT JUMPDEST PUSH32 0x4E487B7100000000000000000000000000000000000000000000000000000000 PUSH0 MSTORE PUSH1 0x22 PUSH1 0x4 MSTORE PUSH1 0x24 PUSH0 REVERT JUMPDEST PUSH0 PUSH1 0x2 DUP3 DIV SWAP1 POP PUSH1 0x1 DUP3 AND DUP1 PUSH2 0x3E8 JUMPI PUSH1 0x7F DUP3 AND SWAP2 POP JUMPDEST PUSH1 0x20 DUP3 LT DUP2 SUB PUSH2 0x3FB JUMPI PUSH2 0x3FA PUSH2 0x3A4 JUMP JUMPDEST JUMPDEST POP SWAP2 SWAP1 POP JUMP JUMPDEST PUSH0 DUP2 SWAP1 POP DUP2 PUSH0 MSTORE PUSH1 0x20 PUSH0 KECCAK256 SWAP1 POP SWAP2 SWAP1 POP JUMP JUMPDEST PUSH0 PUSH1 0x20 PUSH1 0x1F DUP4 ADD DIV SWAP1 POP SWAP2 SWAP1 POP JUMP JUMPDEST PUSH0 DUP3 DUP3 SHL SWAP1 POP SWAP3 SWAP2 POP POP JUMP JUMPDEST PUSH0 PUSH1 0x8 DUP4 MUL PUSH2 0x45D PUSH32 0xFFFFFFFFFFFFFFFFFFFFFFFFFFFFFFFFFFFFFFFFFFFFFFFFFFFFFFFFFFFFFFFF DUP3 PUSH2 0x422 JUMP JUMPDEST PUSH2 0x467 DUP7 DUP4 PUSH2 0x422 JUMP JUMPDEST SWAP6 POP DUP1 NOT DUP5 AND SWAP4 POP DUP1 DUP7 AND DUP5 OR SWAP3 POP POP POP SWAP4 SWAP3 POP POP POP JUMP JUMPDEST PUSH0 DUP2 SWAP1 POP SWAP2 SWAP1 POP JUMP JUMPDEST PUSH0 PUSH2 0x4A2 PUSH2 0x49D PUSH2 0x498 DUP5 PUSH2 0x47F JUMP JUMPDEST PUSH2 0x282 JUMP JUMPDEST PUSH2 0x47F JUMP JUMPDEST SWAP1 POP SWAP2 SWAP1 POP JUMP JUMPDEST PUSH0 DUP2 SWAP1 POP SWAP2 SWAP1 POP JUMP JUMPDEST PUSH2 0x4BB DUP4 PUSH2 0x488 JUMP JUMPDEST PUSH2 0x4CF PUSH2 0x4C7 DUP3 PUSH2 0x4A9 JUMP JUMPDEST DUP5 DUP5 SLOAD PUSH2 0x42E JUMP JUMPDEST DUP3 SSTORE POP POP POP POP JUMP JUMPDEST PUSH0 PUSH0 SWAP1 POP SWAP1 JUMP JUMPDEST PUSH2 0x4E6 PUSH2 0x4D7 JUMP JUMPDEST PUSH2 0x4F1 DUP2 DUP5 DUP5 PUSH2 0x4B2 JUMP JUMPDEST POP POP POP JUMP JUMPDEST JUMPDEST DUP2 DUP2 LT ISZERO PUSH2 0x514 JUMPI PUSH2 0x509 PUSH0 DUP3 PUSH2 0x4DE JUMP JUMPDEST PUSH1 0x1 DUP2 ADD SWAP1 POP PUSH2 0x4F7 JUMP JUMPDEST POP POP JUMP JUMPDEST PUSH1 0x1F DUP3 GT ISZERO PUSH2 0x559 JUMPI PUSH2 0x52A DUP2 PUSH2 0x401 JUMP JUMPDEST PUSH2 0x533 DUP5 PUSH2 0x413 JUMP JUMPDEST DUP2 ADD PUSH1 0x20 DUP6 LT ISZERO PUSH2 0x542 JUMPI DUP2 SWAP1 POP JUMPDEST PUSH2 0x556 PUSH2 0x54E DUP6 PUSH2 0x413 JUMP JUMPDEST DUP4 ADD DUP3 PUSH2 0x4F6 JUMP JUMPDEST POP POP JUMPDEST POP POP POP JUMP JUMPDEST PUSH0 DUP3 DUP3 SHR SWAP1 POP SWAP3 SWAP2 POP POP JUMP JUMPDEST PUSH0 PUSH2 0x579 PUSH0 NOT DUP5 PUSH1 0x8 MUL PUSH2 0x55E JUMP JUMPDEST NOT DUP1 DUP4 AND SWAP2 POP POP SWAP3 SWAP2 POP POP JUMP JUMPDEST PUSH0 PUSH2 0x591 DUP4 DUP4 PUSH2 0x56A JUMP JUMPDEST SWAP2 POP DUP3 PUSH1 0x2 MUL DUP3 OR SWAP1 POP SWAP3 SWAP2 POP POP JUMP JUMPDEST PUSH2 0x5AA DUP3 PUSH2 0x36D JUMP JUMPDEST PUSH8 0xFFFFFFFFFFFFFFFF DUP2 GT ISZERO PUSH2 0x5C3 JUMPI PUSH2 0x5C2 PUSH2 0x377 JUMP JUMPDEST JUMPDEST PUSH2 0x5CD DUP3 SLOAD PUSH2 0x3D1 JUMP JUMPDEST PUSH2 0x5D8 DUP3 DUP3 DUP6 PUSH2 0x518 JUMP JUMPDEST PUSH0 PUSH1 0x20 SWAP1 POP PUSH1 0x1F DUP4 GT PUSH1 0x1 DUP2 EQ PUSH2 0x609 JUMPI PUSH0 DUP5 ISZERO PUSH2 0x5F7 JUMPI DUP3 DUP8 ADD MLOAD SWAP1 POP JUMPDEST PUSH2 0x601 DUP6 DUP3 PUSH2 0x586 JUMP JUMPDEST DUP7 SSTORE POP PUSH2 0x668 JUMP JUMPDEST PUSH1 0x1F NOT DUP5 AND PUSH2 0x617 DUP7 PUSH2 0x401 JUMP JUMPDEST PUSH0 JUMPDEST DUP3 DUP2 LT ISZERO PUSH2 0x63E JUMPI DUP5 DUP10 ADD MLOAD DUP3 SSTORE PUSH1 0x1 DUP3 ADD SWAP2 POP PUSH1 0x20 DUP6 ADD SWAP5 POP PUSH1 0x20 DUP2 ADD SWAP1 POP PUSH2 0x619 JUMP JUMPDEST DUP7 DUP4 LT ISZERO PUSH2 0x65B JUMPI DUP5 DUP10 ADD MLOAD PUSH2 0x657 PUSH1 0x1F DUP10 AND DUP3 PUSH2 0x56A JUMP JUMPDEST DUP4 SSTORE POP JUMPDEST PUSH1 0x1 PUSH1 0x2 DUP9 MUL ADD DUP9 SSTORE POP POP POP JUMPDEST POP POP POP POP POP POP JUMP INVALID LOG2 PUSH5 0x6970667358 0x22 SLT KECCAK256 MUL EXP PUSH20 0x8BFE5BA19BE320AD6443686AC936FDF3FFAF49CE 0xA9 0xB0 0x2C 0xBB 0x2E KECCAK256 NOT 0x29 MOD PUSH5 0x736F6C6343 STOP ADDMOD SHL STOP CALLER "
		},
		"gasEstimates": {
			"creation": {
				"codeDepositCost": "340400",
				"executionCost": "378",
				"totalCost": "340778"
			},
			"external": {
				"dataDiri(int256,int256)": "infinite",
				"dataPasien()": "infinite",
				"editData()": "infinite"
			}
		},
		"methodIdentifiers": {
			"dataDiri(int256,int256)": "1156236d",
			"dataPasien()": "c3397a68",
			"editData()": "a9878a86"
		}
	},
	"abi": [
		{
			"inputs": [
				{
					"internalType": "int256",
					"name": "_nomorSepatu",
					"type": "int256"
				},
				{
					"internalType": "int256",
					"name": "_tinggiBadan",
					"type": "int256"
				}
			],
			"name": "dataDiri",
			"outputs": [
				{
					"internalType": "int256",
					"name": "",
					"type": "int256"
				},
				{
					"internalType": "int256",
					"name": "",
					"type": "int256"
				}
			],
			"stateMutability": "pure",
			"type": "function"
		},
		{
			"inputs": [],
			"name": "dataPasien",
			"outputs": [],
			"stateMutability": "nonpayable",
			"type": "function"
		},
		{
			"inputs": [],
			"name": "editData",
			"outputs": [],
			"stateMutability": "view",
			"type": "function"
		}
	]
}